{
  "contractName": "NumberToString",
  "abi": [
    {
      "inputs": [
        {
          "internalType": "uint256",
          "name": "value",
          "type": "uint256"
        }
      ],
      "name": "toString",
      "outputs": [
        {
          "internalType": "string",
          "name": "",
          "type": "string"
        }
      ],
      "stateMutability": "pure",
      "type": "function",
      "constant": true
    }
  ],
  "bytecode": "0x61050a610053600b82828239805160001a607314610046577f4e487b7100000000000000000000000000000000000000000000000000000000600052600060045260246000fd5b30600052607381538281f3fe73000000000000000000000000000000000000000030146080604052600436106100355760003560e01c80636900a3ae1461003a575b600080fd5b610054600480360381019061004f9190610207565b61006a565b60405161006191906102cd565b60405180910390f35b6060600082036100b1576040518060400160405280600181526020017f300000000000000000000000000000000000000000000000000000000000000081525090506101c7565b600082905060005b600082146100e35780806100cc9061031e565b915050600a826100dc9190610395565b91506100b9565b60008167ffffffffffffffff8111156100ff576100fe6103c6565b5b6040519080825280601f01601f1916602001820160405280156101315781602001600182028036833780820191505090505b5090505b600085146101c0578180610148906103f5565b925050600a85610158919061041e565b603060ff16610167919061044f565b60f81b81838151811061017d5761017c6104a5565b5b60200101907effffffffffffffffffffffffffffffffffffffffffffffffffffffffffffff1916908160001a905350600a856101b99190610395565b9450610135565b8093505050505b919050565b600080fd5b6000819050919050565b6101e4816101d1565b81146101ef57600080fd5b50565b600081359050610201816101db565b92915050565b60006020828403121561021d5761021c6101cc565b5b600061022b848285016101f2565b91505092915050565b600081519050919050565b600082825260208201905092915050565b60005b8381101561026e578082015181840152602081019050610253565b8381111561027d576000848401525b50505050565b6000601f19601f8301169050919050565b600061029f82610234565b6102a9818561023f565b93506102b9818560208601610250565b6102c281610283565b840191505092915050565b600060208201905081810360008301526102e78184610294565b905092915050565b7f4e487b7100000000000000000000000000000000000000000000000000000000600052601160045260246000fd5b6000610329826101d1565b91507fffffffffffffffffffffffffffffffffffffffffffffffffffffffffffffffff820361035b5761035a6102ef565b5b600182019050919050565b7f4e487b7100000000000000000000000000000000000000000000000000000000600052601260045260246000fd5b60006103a0826101d1565b91506103ab836101d1565b9250826103bb576103ba610366565b5b828204905092915050565b7f4e487b7100000000000000000000000000000000000000000000000000000000600052604160045260246000fd5b6000610400826101d1565b915060008203610413576104126102ef565b5b600182039050919050565b6000610429826101d1565b9150610434836101d1565b92508261044457610443610366565b5b828206905092915050565b600061045a826101d1565b9150610465836101d1565b9250827fffffffffffffffffffffffffffffffffffffffffffffffffffffffffffffffff0382111561049a576104996102ef565b5b828201905092915050565b7f4e487b7100000000000000000000000000000000000000000000000000000000600052603260045260246000fdfea2646970667358221220f2bf95896fdde3ca963d8f10a1ee77118cb62680f0439cc7b87fe1fba84bb8b364736f6c634300080d0033",
  "immutableReferences": {},
  "source": "// SPDX-License-Identifier: MIT\r\npragma solidity ^0.8.0;\r\n\r\nlibrary NumberToString { \r\n    uint8 private constant ASCII_Zero = 48;\r\n    function toString(uint256 value) public pure returns (string memory) {\r\n        if (value == 0) {\r\n            return \"0\";\r\n        }\r\n        uint256 temp = value;\r\n        uint256 digits;\r\n        while (temp != 0) {\r\n            digits++;\r\n            temp /= 10;\r\n        }\r\n        bytes memory buffer = new bytes(digits);\r\n        while (value != 0) {\r\n            digits--;\r\n            buffer[digits] = bytes1(uint8(ASCII_Zero + uint256(value % 10)));\r\n            value /= 10;\r\n        }\r\n        return string(buffer);\r\n    }\r\n}\r\n",
  "sourcePath": "D:\\Voting System (Web3 DApp)\\contract\\contracts\\NumberToString.sol",
  "compiler": {
    "name": "solc",
    "version": "0.8.13+commit.abaa5c0e.Emscripten.clang"
  },
  "schemaVersion": "3.4.16",
  "updatedAt": "2024-07-25T10:10:04.321Z",
  "networkType": "ethereum",
  "devdoc": {
    "kind": "dev",
    "methods": {},
    "version": 1
  },
  "userdoc": {
    "kind": "user",
    "methods": {},
    "version": 1
  }
}