{
  "contractName": "Voting",
  "abi": [
    {
      "inputs": [],
      "stateMutability": "payable",
      "type": "constructor",
      "payable": true
    },
    {
      "anonymous": false,
      "inputs": [
        {
          "indexed": false,
          "internalType": "uint256",
          "name": "candidateID",
          "type": "uint256"
        },
        {
          "indexed": false,
          "internalType": "string",
          "name": "name",
          "type": "string"
        },
        {
          "indexed": false,
          "internalType": "string",
          "name": "description",
          "type": "string"
        }
      ],
      "name": "CandidateAdded",
      "type": "event"
    },
    {
      "anonymous": false,
      "inputs": [
        {
          "indexed": true,
          "internalType": "address",
          "name": "voter",
          "type": "address"
        },
        {
          "indexed": false,
          "internalType": "uint256",
          "name": "candidateID",
          "type": "uint256"
        }
      ],
      "name": "Voted",
      "type": "event"
    },
    {
      "anonymous": false,
      "inputs": [
        {
          "indexed": false,
          "internalType": "uint256",
          "name": "endTime",
          "type": "uint256"
        }
      ],
      "name": "VotingEnded",
      "type": "event"
    },
    {
      "anonymous": false,
      "inputs": [
        {
          "indexed": false,
          "internalType": "uint256",
          "name": "startTime",
          "type": "uint256"
        },
        {
          "indexed": false,
          "internalType": "uint256",
          "name": "durationMinutes",
          "type": "uint256"
        }
      ],
      "name": "VotingStarted",
      "type": "event"
    },
    {
      "anonymous": false,
      "inputs": [
        {
          "indexed": false,
          "internalType": "uint256",
          "name": "candidateID",
          "type": "uint256"
        },
        {
          "indexed": false,
          "internalType": "string",
          "name": "name",
          "type": "string"
        },
        {
          "indexed": false,
          "internalType": "string",
          "name": "description",
          "type": "string"
        },
        {
          "indexed": false,
          "internalType": "uint256",
          "name": "voteCount",
          "type": "uint256"
        },
        {
          "indexed": false,
          "internalType": "string",
          "name": "percent",
          "type": "string"
        }
      ],
      "name": "WinnerDeclared",
      "type": "event"
    },
    {
      "inputs": [
        {
          "internalType": "uint256",
          "name": "",
          "type": "uint256"
        }
      ],
      "name": "candidates",
      "outputs": [
        {
          "internalType": "uint256",
          "name": "id",
          "type": "uint256"
        },
        {
          "internalType": "string",
          "name": "name",
          "type": "string"
        },
        {
          "internalType": "string",
          "name": "description",
          "type": "string"
        },
        {
          "internalType": "uint256",
          "name": "voteCount",
          "type": "uint256"
        }
      ],
      "stateMutability": "view",
      "type": "function",
      "constant": true
    },
    {
      "inputs": [],
      "name": "candidatesCount",
      "outputs": [
        {
          "internalType": "uint256",
          "name": "",
          "type": "uint256"
        }
      ],
      "stateMutability": "view",
      "type": "function",
      "constant": true
    },
    {
      "inputs": [],
      "name": "totalVotes",
      "outputs": [
        {
          "internalType": "uint256",
          "name": "",
          "type": "uint256"
        }
      ],
      "stateMutability": "view",
      "type": "function",
      "constant": true
    },
    {
      "inputs": [],
      "name": "votingEndTime",
      "outputs": [
        {
          "internalType": "uint256",
          "name": "",
          "type": "uint256"
        }
      ],
      "stateMutability": "view",
      "type": "function",
      "constant": true
    },
    {
      "inputs": [],
      "name": "votingStartTime",
      "outputs": [
        {
          "internalType": "uint256",
          "name": "",
          "type": "uint256"
        }
      ],
      "stateMutability": "view",
      "type": "function",
      "constant": true
    },
    {
      "inputs": [],
      "name": "votingStarted",
      "outputs": [
        {
          "internalType": "bool",
          "name": "",
          "type": "bool"
        }
      ],
      "stateMutability": "view",
      "type": "function",
      "constant": true
    },
    {
      "inputs": [
        {
          "internalType": "string",
          "name": "name",
          "type": "string"
        },
        {
          "internalType": "string",
          "name": "description",
          "type": "string"
        }
      ],
      "name": "addCandidate",
      "outputs": [],
      "stateMutability": "nonpayable",
      "type": "function"
    },
    {
      "inputs": [
        {
          "internalType": "uint256",
          "name": "durationMinutes",
          "type": "uint256"
        }
      ],
      "name": "startVoting",
      "outputs": [],
      "stateMutability": "nonpayable",
      "type": "function"
    },
    {
      "inputs": [
        {
          "internalType": "uint256",
          "name": "candidateID",
          "type": "uint256"
        }
      ],
      "name": "vote",
      "outputs": [],
      "stateMutability": "nonpayable",
      "type": "function"
    },
    {
      "inputs": [],
      "name": "getVotingStatus",
      "outputs": [
        {
          "internalType": "bool",
          "name": "isVotingActive",
          "type": "bool"
        },
        {
          "internalType": "uint256",
          "name": "startTime",
          "type": "uint256"
        },
        {
          "internalType": "uint256",
          "name": "endTime",
          "type": "uint256"
        },
        {
          "internalType": "uint256",
          "name": "totalVotesCount",
          "type": "uint256"
        }
      ],
      "stateMutability": "view",
      "type": "function",
      "constant": true
    },
    {
      "inputs": [
        {
          "internalType": "uint256",
          "name": "candidateID",
          "type": "uint256"
        }
      ],
      "name": "getCandidate",
      "outputs": [
        {
          "components": [
            {
              "internalType": "uint256",
              "name": "id",
              "type": "uint256"
            },
            {
              "internalType": "string",
              "name": "name",
              "type": "string"
            },
            {
              "internalType": "string",
              "name": "description",
              "type": "string"
            },
            {
              "internalType": "uint256",
              "name": "voteCount",
              "type": "uint256"
            }
          ],
          "internalType": "struct Voting.Candidate",
          "name": "",
          "type": "tuple"
        }
      ],
      "stateMutability": "view",
      "type": "function",
      "constant": true
    },
    {
      "inputs": [
        {
          "internalType": "address",
          "name": "voter",
          "type": "address"
        }
      ],
      "name": "verifyVoter",
      "outputs": [
        {
          "internalType": "bool",
          "name": "",
          "type": "bool"
        }
      ],
      "stateMutability": "view",
      "type": "function",
      "constant": true
    },
    {
      "inputs": [],
      "name": "endVoting",
      "outputs": [],
      "stateMutability": "nonpayable",
      "type": "function"
    }
  ],
  "bytecode": "0x60a06040526000600760006101000a81548160ff02191690831515021790555060006008553373ffffffffffffffffffffffffffffffffffffffff1660808173ffffffffffffffffffffffffffffffffffffffff16815250506080516126d76100816000396000818161058c01528181610ae50152610cd101526126d76000f3fe608060405234801561001057600080fd5b50600436106100cf5760003560e01c80632d35a8a21161008c5780633d2f5bda116100665780633d2f5bda14610217578063581c281c1461023357806383d948b714610254578063c3403ddf14610272576100cf565b80632d35a8a2146101965780633477ee2e146101b457806335b8e820146101e7576100cf565b80630121b93f146100d457806309bd0950146100f05780630d15fd77146101205780631ea736e01461013e5780632019a6081461015c57806326541b561461017a575b600080fd5b6100ee60048036038101906100e99190611646565b61027c565b005b61010a600480360381019061010591906116d1565b61052c565b6040516101179190611719565b60405180910390f35b610128610578565b6040516101359190611743565b60405180910390f35b61014661057e565b6040516101539190611743565b60405180910390f35b610164610584565b6040516101719190611743565b60405180910390f35b610194600480360381019061018f91906118a4565b61058a565b005b61019e6107e8565b6040516101ab9190611743565b60405180910390f35b6101ce60048036038101906101c99190611646565b6107ee565b6040516101de94939291906119a4565b60405180910390f35b61020160048036038101906101fc9190611646565b61092e565b60405161020e9190611aba565b60405180910390f35b610231600480360381019061022c9190611646565b610ae3565b005b61023b610c8f565b60405161024b9493929190611adc565b60405180910390f35b61025c610cbc565b6040516102699190611719565b60405180910390f35b61027a610ccf565b005b600760009054906101000a900460ff166102cb576040517f08c379a00000000000000000000000000000000000000000000000000000000081526004016102c290611b6d565b60405180910390fd5b60055442101580156102df57506006544211155b61031e576040517f08c379a000000000000000000000000000000000000000000000000000000000815260040161031590611bff565b60405180910390fd5b6000600260003373ffffffffffffffffffffffffffffffffffffffff1673ffffffffffffffffffffffffffffffffffffffff16815260200190815260200160002054146103a0576040517f08c379a000000000000000000000000000000000000000000000000000000000815260040161039790611c6b565b60405180910390fd5b6000811180156103b257506003548111155b6103f1576040517f08c379a00000000000000000000000000000000000000000000000000000000081526004016103e890611cd7565b60405180910390fd5b80600260003373ffffffffffffffffffffffffffffffffffffffff1673ffffffffffffffffffffffffffffffffffffffff168152602001908152602001600020819055506004339080600181540180825580915050600190039060005260206000200160009091909190916101000a81548173ffffffffffffffffffffffffffffffffffffffff021916908373ffffffffffffffffffffffffffffffffffffffff16021790555060008082815260200190815260200160002060030160008154809291906104be90611d26565b9190505550600860008154809291906104d690611d26565b91905055503373ffffffffffffffffffffffffffffffffffffffff167f4d99b957a2bc29a30ebd96a7be8e68fe50a3c701db28a91436490b7d53870ca4826040516105219190611743565b60405180910390a250565b600080600260008473ffffffffffffffffffffffffffffffffffffffff1673ffffffffffffffffffffffffffffffffffffffff1681526020019081526020016000205414159050919050565b60085481565b60065481565b60055481565b7f000000000000000000000000000000000000000000000000000000000000000073ffffffffffffffffffffffffffffffffffffffff163373ffffffffffffffffffffffffffffffffffffffff1614610618576040517f08c379a000000000000000000000000000000000000000000000000000000000815260040161060f90611de0565b60405180910390fd5b600160006106268484610e1c565b815260200190815260200160002060009054906101000a900460ff1615610682576040517f08c379a000000000000000000000000000000000000000000000000000000000815260040161067990611e72565b60405180910390fd5b600760009054906101000a900460ff16156106d2576040517f08c379a00000000000000000000000000000000000000000000000000000000081526004016106c990611ede565b60405180910390fd5b600360008154809291906106e590611d26565b919050555060405180608001604052806003548152602001838152602001828152602001600081525060008060035481526020019081526020016000206000820151816000015560208201518160010190805190602001906107489291906114d0565b5060408201518160020190805190602001906107659291906114d0565b506060820151816003015590505060018060006107828585610e1c565b815260200190815260200160002060006101000a81548160ff0219169083151502179055507fe64f834082661dd9ed89427b87edb6270fd6dad17198b0938f0edd058914c87f60035483836040516107dc93929190611efe565b60405180910390a15050565b60035481565b600060205280600052604060002060009150905080600001549080600101805461081790611f72565b80601f016020809104026020016040519081016040528092919081815260200182805461084390611f72565b80156108905780601f1061086557610100808354040283529160200191610890565b820191906000526020600020905b81548152906001019060200180831161087357829003601f168201915b5050505050908060020180546108a590611f72565b80601f01602080910402602001604051908101604052809291908181526020018280546108d190611f72565b801561091e5780601f106108f35761010080835404028352916020019161091e565b820191906000526020600020905b81548152906001019060200180831161090157829003601f168201915b5050505050908060030154905084565b610936611556565b60008211801561094857506003548211155b610987576040517f08c379a000000000000000000000000000000000000000000000000000000000815260040161097e90611cd7565b60405180910390fd5b600080838152602001908152602001600020604051806080016040529081600082015481526020016001820180546109be90611f72565b80601f01602080910402602001604051908101604052809291908181526020018280546109ea90611f72565b8015610a375780601f10610a0c57610100808354040283529160200191610a37565b820191906000526020600020905b815481529060010190602001808311610a1a57829003601f168201915b50505050508152602001600282018054610a5090611f72565b80601f0160208091040260200160405190810160405280929190818152602001828054610a7c90611f72565b8015610ac95780601f10610a9e57610100808354040283529160200191610ac9565b820191906000526020600020905b815481529060010190602001808311610aac57829003601f168201915b505050505081526020016003820154815250509050919050565b7f000000000000000000000000000000000000000000000000000000000000000073ffffffffffffffffffffffffffffffffffffffff163373ffffffffffffffffffffffffffffffffffffffff1614610b71576040517f08c379a0000000000000000000000000000000000000000000000000000000008152600401610b6890611de0565b60405180910390fd5b60026003541015610bb7576040517f08c379a0000000000000000000000000000000000000000000000000000000008152600401610bae90612015565b60405180910390fd5b600760009054906101000a900460ff1615610c07576040517f08c379a0000000000000000000000000000000000000000000000000000000008152600401610bfe90611ede565b60405180910390fd5b42600581905550603c81610c1b9190612035565b600554610c28919061208f565b6006819055506001600760006101000a81548160ff02191690831515021790555060006008819055507ff8c022056754dbacca05aff710dc315a2fa7699ae9309fda403cd1e55c11d40f60055482604051610c849291906120e5565b60405180910390a150565b600080600080600760009054906101000a900460ff16600554600654600854935093509350935090919293565b600760009054906101000a900460ff1681565b7f000000000000000000000000000000000000000000000000000000000000000073ffffffffffffffffffffffffffffffffffffffff163373ffffffffffffffffffffffffffffffffffffffff1614610d5d576040517f08c379a0000000000000000000000000000000000000000000000000000000008152600401610d5490611de0565b60405180910390fd5b600760009054906101000a900460ff16610dac576040517f08c379a0000000000000000000000000000000000000000000000000000000008152600401610da39061215a565b60405180910390fd5b6000600760006101000a81548160ff0219169083151502179055507f81eb7415440ff8e6c8e92606fd3b0e5e6a5c99ea90cdb63b41aec54e897312b342604051610df69190611743565b60405180910390a160006008541115610e1257610e11610e4f565b5b610e1a6111c6565b565b60008282604051602001610e3192919061224e565b60405160208183030381529060405280519060200120905092915050565b600060085411610e94576040517f08c379a0000000000000000000000000000000000000000000000000000000008152600401610e8b906122d4565b60405180910390fd5b60008060035467ffffffffffffffff811115610eb357610eb2611779565b5b604051908082528060200260200182016040528015610ee15781602001602082028036833780820191505090505b509050600080600190505b6003548111610fb35783600080838152602001908152602001600020600301541115610f54576000808281526020019081526020016000206003015493508083600081518110610f3f57610f3e6122f4565b5b60200260200101818152505060019150610fa0565b836000808381526020019081526020016000206003015403610f9f5780838381518110610f8457610f836122f4565b5b6020026020010181815250508180610f9b90611d26565b9250505b5b8080610fab90611d26565b915050610eec565b5060005b818110156111c0576000838281518110610fd457610fd36122f4565b5b60200260200101519050600060085461271087610ff19190612035565b610ffb9190612352565b9050600060648261100c9190612352565b9050600060648361101d9190612383565b905060008273__NumberToString________________________636900a3ae90916040518263ffffffff1660e01b815260040161105a91906123c3565b600060405180830381865af4158015611077573d6000803e3d6000fd5b505050506040513d6000823e3d601f19601f820116820180604052508101906110a0919061244e565b8273__NumberToString________________________636900a3ae90916040518263ffffffff1660e01b81526004016110d991906123c3565b600060405180830381865af41580156110f6573d6000803e3d6000fd5b505050506040513d6000823e3d601f19601f8201168201806040525081019061111f919061244e565b6040516020016111309291906124e3565b60405160208183030381529060405290507f77c745eb637096561a665a150162ec47463f47590300b920ced9b57bbe0d3b52856000808881526020019081526020016000206001016000808981526020019081526020016000206002018c856040516111a09594939291906125a7565b60405180910390a1505050505080806111b890611d26565b915050610fb7565b50505050565b600760009054906101000a900460ff1615611216576040517f08c379a000000000000000000000000000000000000000000000000000000000815260040161120d90612681565b60405180910390fd5b6000600190505b60035481116113df5760008060008381526020019081526020016000209050600061136082600101805461125090611f72565b80601f016020809104026020016040519081016040528092919081815260200182805461127c90611f72565b80156112c95780601f1061129e576101008083540402835291602001916112c9565b820191906000526020600020905b8154815290600101906020018083116112ac57829003601f168201915b50505050508360020180546112dd90611f72565b80601f016020809104026020016040519081016040528092919081815260200182805461130990611f72565b80156113565780601f1061132b57610100808354040283529160200191611356565b820191906000526020600020905b81548152906001019060200180831161133957829003601f168201915b5050505050610e1c565b90506001600082815260200190815260200160002060006101000a81549060ff02191690556000808481526020019081526020016000206000808201600090556001820160006113b0919061157e565b6002820160006113c0919061157e565b60038201600090555050505080806113d790611d26565b91505061121d565b50600060038190555060005b60048054905081101561148c5760026000600483815481106114105761140f6122f4565b5b9060005260206000200160009054906101000a900473ffffffffffffffffffffffffffffffffffffffff1673ffffffffffffffffffffffffffffffffffffffff1673ffffffffffffffffffffffffffffffffffffffff16815260200190815260200160002060009055808061148490611d26565b9150506113eb565b506004600061149b91906115be565b60006008819055506000600760006101000a81548160ff02191690831515021790555060006005819055506000600681905550565b8280546114dc90611f72565b90600052602060002090601f0160209004810192826114fe5760008555611545565b82601f1061151757805160ff1916838001178555611545565b82800160010185558215611545579182015b82811115611544578251825591602001919060010190611529565b5b50905061155291906115df565b5090565b6040518060800160405280600081526020016060815260200160608152602001600081525090565b50805461158a90611f72565b6000825580601f1061159c57506115bb565b601f0160209004906000526020600020908101906115ba91906115df565b5b50565b50805460008255906000526020600020908101906115dc91906115df565b50565b5b808211156115f85760008160009055506001016115e0565b5090565b6000604051905090565b600080fd5b600080fd5b6000819050919050565b61162381611610565b811461162e57600080fd5b50565b6000813590506116408161161a565b92915050565b60006020828403121561165c5761165b611606565b5b600061166a84828501611631565b91505092915050565b600073ffffffffffffffffffffffffffffffffffffffff82169050919050565b600061169e82611673565b9050919050565b6116ae81611693565b81146116b957600080fd5b50565b6000813590506116cb816116a5565b92915050565b6000602082840312156116e7576116e6611606565b5b60006116f5848285016116bc565b91505092915050565b60008115159050919050565b611713816116fe565b82525050565b600060208201905061172e600083018461170a565b92915050565b61173d81611610565b82525050565b60006020820190506117586000830184611734565b92915050565b600080fd5b600080fd5b6000601f19601f8301169050919050565b7f4e487b7100000000000000000000000000000000000000000000000000000000600052604160045260246000fd5b6117b182611768565b810181811067ffffffffffffffff821117156117d0576117cf611779565b5b80604052505050565b60006117e36115fc565b90506117ef82826117a8565b919050565b600067ffffffffffffffff82111561180f5761180e611779565b5b61181882611768565b9050602081019050919050565b82818337600083830152505050565b6000611847611842846117f4565b6117d9565b90508281526020810184848401111561186357611862611763565b5b61186e848285611825565b509392505050565b600082601f83011261188b5761188a61175e565b5b813561189b848260208601611834565b91505092915050565b600080604083850312156118bb576118ba611606565b5b600083013567ffffffffffffffff8111156118d9576118d861160b565b5b6118e585828601611876565b925050602083013567ffffffffffffffff8111156119065761190561160b565b5b61191285828601611876565b9150509250929050565b600081519050919050565b600082825260208201905092915050565b60005b8381101561195657808201518184015260208101905061193b565b83811115611965576000848401525b50505050565b60006119768261191c565b6119808185611927565b9350611990818560208601611938565b61199981611768565b840191505092915050565b60006080820190506119b96000830187611734565b81810360208301526119cb818661196b565b905081810360408301526119df818561196b565b90506119ee6060830184611734565b95945050505050565b611a0081611610565b82525050565b600082825260208201905092915050565b6000611a228261191c565b611a2c8185611a06565b9350611a3c818560208601611938565b611a4581611768565b840191505092915050565b6000608083016000830151611a6860008601826119f7565b5060208301518482036020860152611a808282611a17565b91505060408301518482036040860152611a9a8282611a17565b9150506060830151611aaf60608601826119f7565b508091505092915050565b60006020820190508181036000830152611ad48184611a50565b905092915050565b6000608082019050611af1600083018761170a565b611afe6020830186611734565b611b0b6040830185611734565b611b186060830184611734565b95945050505050565b7f566f74696e67206e6f7420737461727465642079657400000000000000000000600082015250565b6000611b57601683611927565b9150611b6282611b21565b602082019050919050565b60006020820190508181036000830152611b8681611b4a565b9050919050565b7f566f74696e6720706572696f642068617320656e646564206f72206e6f74207360008201527f7461727465640000000000000000000000000000000000000000000000000000602082015250565b6000611be9602683611927565b9150611bf482611b8d565b604082019050919050565b60006020820190508181036000830152611c1881611bdc565b9050919050565b7f416c726561647920766f74656400000000000000000000000000000000000000600082015250565b6000611c55600d83611927565b9150611c6082611c1f565b602082019050919050565b60006020820190508181036000830152611c8481611c48565b9050919050565b7f496e76616c69642063616e646964617465204944000000000000000000000000600082015250565b6000611cc1601483611927565b9150611ccc82611c8b565b602082019050919050565b60006020820190508181036000830152611cf081611cb4565b9050919050565b7f4e487b7100000000000000000000000000000000000000000000000000000000600052601160045260246000fd5b6000611d3182611610565b91507fffffffffffffffffffffffffffffffffffffffffffffffffffffffffffffffff8203611d6357611d62611cf7565b5b600182019050919050565b7f4f6e6c792061646d696e2063616e20706572666f726d2074686973206163746960008201527f6f6e000000000000000000000000000000000000000000000000000000000000602082015250565b6000611dca602283611927565b9150611dd582611d6e565b604082019050919050565b60006020820190508181036000830152611df981611dbd565b9050919050565b7f43616e6469646174652077697468207468652073616d65206e616d6520616e6460008201527f206465736372697074696f6e20616c7265616479206578697374730000000000602082015250565b6000611e5c603b83611927565b9150611e6782611e00565b604082019050919050565b60006020820190508181036000830152611e8b81611e4f565b9050919050565b7f566f74696e672068617320616c72656164792073746172746564000000000000600082015250565b6000611ec8601a83611927565b9150611ed382611e92565b602082019050919050565b60006020820190508181036000830152611ef781611ebb565b9050919050565b6000606082019050611f136000830186611734565b8181036020830152611f25818561196b565b90508181036040830152611f39818461196b565b9050949350505050565b7f4e487b7100000000000000000000000000000000000000000000000000000000600052602260045260246000fd5b60006002820490506001821680611f8a57607f821691505b602082108103611f9d57611f9c611f43565b5b50919050565b7f4e656564206174206c656173742074776f2063616e6469646174657320746f2060008201527f737461727420766f74696e670000000000000000000000000000000000000000602082015250565b6000611fff602c83611927565b915061200a82611fa3565b604082019050919050565b6000602082019050818103600083015261202e81611ff2565b9050919050565b600061204082611610565b915061204b83611610565b9250817fffffffffffffffffffffffffffffffffffffffffffffffffffffffffffffffff048311821515161561208457612083611cf7565b5b828202905092915050565b600061209a82611610565b91506120a583611610565b9250827fffffffffffffffffffffffffffffffffffffffffffffffffffffffffffffffff038211156120da576120d9611cf7565b5b828201905092915050565b60006040820190506120fa6000830185611734565b6121076020830184611734565b9392505050565b7f566f74696e6720686173206e6f74206265656e20737461727465642079657400600082015250565b6000612144601f83611927565b915061214f8261210e565b602082019050919050565b6000602082019050818103600083015261217381612137565b9050919050565b600081905092915050565b7f6669656c64313a00000000000000000000000000000000000000000000000000600082015250565b60006121bb60078361217a565b91506121c682612185565b600782019050919050565b60006121dc8261191c565b6121e6818561217a565b93506121f6818560208601611938565b80840191505092915050565b7f3b6669656c64323a000000000000000000000000000000000000000000000000600082015250565b600061223860088361217a565b915061224382612202565b600882019050919050565b6000612259826121ae565b915061226582856121d1565b91506122708261222b565b915061227c82846121d1565b91508190509392505050565b7f4e6f20766f7465732068617665206265656e2063617374000000000000000000600082015250565b60006122be601783611927565b91506122c982612288565b602082019050919050565b600060208201905081810360008301526122ed816122b1565b9050919050565b7f4e487b7100000000000000000000000000000000000000000000000000000000600052603260045260246000fd5b7f4e487b7100000000000000000000000000000000000000000000000000000000600052601260045260246000fd5b600061235d82611610565b915061236883611610565b92508261237857612377612323565b5b828204905092915050565b600061238e82611610565b915061239983611610565b9250826123a9576123a8612323565b5b828206905092915050565b6123bd81611610565b82525050565b60006020820190506123d860008301846123b4565b92915050565b60006123f16123ec846117f4565b6117d9565b90508281526020810184848401111561240d5761240c611763565b5b612418848285611938565b509392505050565b600082601f8301126124355761243461175e565b5b81516124458482602086016123de565b91505092915050565b60006020828403121561246457612463611606565b5b600082015167ffffffffffffffff8111156124825761248161160b565b5b61248e84828501612420565b91505092915050565b7f2e00000000000000000000000000000000000000000000000000000000000000600082015250565b60006124cd60018361217a565b91506124d882612497565b600182019050919050565b60006124ef82856121d1565b91506124fa826124c0565b915061250682846121d1565b91508190509392505050565b60008190508160005260206000209050919050565b6000815461253481611f72565b61253e8186611927565b94506001821660008114612559576001811461256b5761259e565b60ff198316865260208601935061259e565b61257485612512565b60005b8381101561259657815481890152600182019150602081019050612577565b808801955050505b50505092915050565b600060a0820190506125bc6000830188611734565b81810360208301526125ce8187612527565b905081810360408301526125e28186612527565b90506125f16060830185611734565b8181036080830152612603818461196b565b90509695505050505050565b7f43616e6e6f7420726573657420766f74696e67207768696c652069742069732060008201527f6163746976652e00000000000000000000000000000000000000000000000000602082015250565b600061266b602783611927565b91506126768261260f565b604082019050919050565b6000602082019050818103600083015261269a8161265e565b905091905056fea2646970667358221220f2d3e95900c01650eb4930800cd32350e11e5983826b4dbd8795217f1d927e9364736f6c634300080d0033",
  "immutableReferences": {
    "141": [
      {
        "length": 32,
        "start": 1420
      },
      {
        "length": 32,
        "start": 2789
      },
      {
        "length": 32,
        "start": 3281
      }
    ]
  },
  "source": "// SPDX-License-Identifier: MIT\r\npragma solidity ^0.8.0;\r\n\r\nimport \"./HashFix.sol\";\r\nimport \"./NumberToString.sol\";\r\n\r\ncontract Voting {\r\n    using HashFix for *;\r\n    using NumberToString for uint256;\r\n    \r\n    struct Candidate {\r\n        uint id;\r\n        string name;\r\n        string description; \r\n        uint voteCount;\r\n    } \r\n\r\n    address payable private immutable admin;\r\n\r\n    mapping(uint => Candidate) public candidates;\r\n    mapping(bytes32 => bool) private alreadyExists; \r\n    mapping(address => uint) private voteRecord;\r\n    uint public candidatesCount;\r\n    address[] private voters;\r\n    uint public votingStartTime;\r\n    uint public votingEndTime;\r\n    bool public votingStarted = false;\r\n    uint public totalVotes = 0; \r\n\r\n    event CandidateAdded(uint candidateID, string name, string description);\r\n    event Voted(address indexed voter, uint candidateID);\r\n    event VotingStarted(uint startTime, uint durationMinutes);\r\n    event VotingEnded(uint endTime);\r\n    event WinnerDeclared(uint candidateID, string name, string description, uint voteCount, string percent);\r\n\r\n    modifier onlyAdmin() {\r\n        require(msg.sender == admin, \"Only admin can perform this action\");\r\n        _;\r\n    }\r\n\r\n    constructor() payable {\r\n        admin = payable(msg.sender);\r\n    }\r\n \r\n    //    \r\n    function addCandidate(string memory name, string memory description) public onlyAdmin {\r\n        require(!alreadyExists[HashFix.hashStruct(name, description)], \"Candidate with the same name and description already exists\");\r\n        require(!votingStarted, \"Voting has already started\");\r\n\r\n        candidatesCount++;\r\n        candidates[candidatesCount] = Candidate(candidatesCount, name, description, 0);\r\n        alreadyExists[HashFix.hashStruct(name, description)] = true; //      \r\n\r\n        emit CandidateAdded(candidatesCount, name, description);\r\n    }\r\n\r\n    //   \r\n    function startVoting(uint durationMinutes) public onlyAdmin {\r\n        require(candidatesCount >= 2, \"Need at least two candidates to start voting\");\r\n        require(!votingStarted, \"Voting has already started\");\r\n\r\n        votingStartTime = block.timestamp;\r\n        votingEndTime = votingStartTime + (durationMinutes * 1 minutes);\r\n        votingStarted = true;\r\n        totalVotes = 0;\r\n\r\n        emit VotingStarted(votingStartTime, durationMinutes);\r\n    }\r\n    \r\n    //   \r\n    function vote(uint candidateID) public {\r\n        require(votingStarted, \"Voting not started yet\");\r\n        require(block.timestamp >= votingStartTime && block.timestamp <= votingEndTime, \"Voting period has ended or not started\");\r\n        require(voteRecord[msg.sender] == 0, \"Already voted\");\r\n        require(candidateID > 0 && candidateID <= candidatesCount, \"Invalid candidate ID\");\r\n\r\n        voteRecord[msg.sender] = candidateID;\r\n        voters.push(msg.sender); //   \r\n        candidates[candidateID].voteCount++;\r\n        totalVotes++;\r\n\r\n        emit Voted(msg.sender, candidateID);\r\n    }\r\n    \r\n    //   \r\n    function getVotingStatus() public view returns (bool isVotingActive, uint startTime, uint endTime, uint totalVotesCount) {\r\n        return (votingStarted, votingStartTime, votingEndTime, totalVotes);\r\n    }\r\n\r\n    //       ID\r\n    function getCandidate(uint candidateID) public view returns (Candidate memory) {\r\n        require(candidateID > 0 && candidateID <= candidatesCount, \"Invalid candidate ID\");\r\n        return candidates[candidateID];\r\n    }\r\n\r\n    // ,    \r\n    function verifyVoter(address voter) public view returns (bool) {\r\n        return voteRecord[voter] != 0;\r\n    }\r\n\r\n    //   \r\n    function endVoting() public onlyAdmin {\r\n        require(votingStarted, \"Voting has not been started yet\");\r\n        votingStarted = false;\r\n        emit VotingEnded(block.timestamp);\r\n        if(totalVotes > 0) \r\n            declareWinner();\r\n        resetVoting();\r\n    }\r\n\r\n    //   \r\n    function resetVoting() private {\r\n        require(!votingStarted, \"Cannot reset voting while it is active.\");\r\n\r\n        for (uint i = 1; i <= candidatesCount; i++) {\r\n            Candidate storage candidate = candidates[i];\r\n            bytes32 namedescriptionKey = HashFix.hashStruct(candidate.name, candidate.description);\r\n            delete alreadyExists[namedescriptionKey];\r\n            delete candidates[i];\r\n        }\r\n        candidatesCount = 0;\r\n\r\n        for (uint i = 0; i < voters.length; i++) {\r\n            delete voteRecord[voters[i]];\r\n        }\r\n        delete voters; \r\n\r\n        totalVotes = 0;\r\n        votingStarted = false;\r\n        votingStartTime = 0;\r\n        votingEndTime = 0;\r\n    }\r\n\r\n    //    \r\n    function declareWinner() private {\r\n        require(totalVotes > 0, \"No votes have been cast\");\r\n\r\n        uint winningVoteCount = 0;\r\n        uint[] memory winners = new uint[](candidatesCount); //     \r\n        uint winnersCount = 0;\r\n\r\n        for (uint i = 1; i <= candidatesCount; i++) {\r\n            if (candidates[i].voteCount > winningVoteCount) {\r\n                winningVoteCount = candidates[i].voteCount;\r\n                winners[0] = i;\r\n                winnersCount = 1;\r\n            } else if (candidates[i].voteCount == winningVoteCount) {\r\n                winners[winnersCount] = i;\r\n                winnersCount++;\r\n            }\r\n        }\r\n\r\n        for(uint i = 0; i < winnersCount; i++){\r\n            uint candidateID = winners[i];\r\n            uint winPercent100 = (winningVoteCount * 10000) / totalVotes;\r\n            uint whole = winPercent100 / 100;\r\n            uint fract = winPercent100 % 100;\r\n            string memory winnerPercent = string(abi.encodePacked(whole.toString(), \".\", fract.toString()));\r\n\r\n            emit WinnerDeclared(candidateID, candidates[candidateID].name, candidates[candidateID].description, winningVoteCount, winnerPercent);\r\n        }\r\n    }\r\n}\r\n",
  "sourcePath": "D:\\Voting System (Web3 DApp)\\contract\\contracts\\Voting.sol",
  "compiler": {
    "name": "solc",
    "version": "0.8.13+commit.abaa5c0e.Emscripten.clang"
  },
  "schemaVersion": "3.4.16",
  "updatedAt": "2024-07-25T10:10:04.329Z",
  "networkType": "ethereum",
  "devdoc": {
    "kind": "dev",
    "methods": {},
    "version": 1
  },
  "userdoc": {
    "kind": "user",
    "methods": {},
    "version": 1
  }
}